{
  "_format": "hh-sol-artifact-1",
  "contractName": "May",
  "sourceName": "contracts/May.sol",
  "abi": [
    {
      "inputs": [],
      "name": "_age",
      "outputs": [
        {
          "internalType": "uint256",
          "name": "",
          "type": "uint256"
        }
      ],
      "stateMutability": "view",
      "type": "function"
    },
    {
      "inputs": [],
      "name": "_description",
      "outputs": [
        {
          "internalType": "string",
          "name": "",
          "type": "string"
        }
      ],
      "stateMutability": "view",
      "type": "function"
    },
    {
      "inputs": [],
      "name": "_name",
      "outputs": [
        {
          "internalType": "string",
          "name": "",
          "type": "string"
        }
      ],
      "stateMutability": "view",
      "type": "function"
    },
    {
      "inputs": [],
      "name": "getAge",
      "outputs": [
        {
          "internalType": "uint256",
          "name": "",
          "type": "uint256"
        }
      ],
      "stateMutability": "view",
      "type": "function"
    },
    {
      "inputs": [],
      "name": "getDescription",
      "outputs": [
        {
          "internalType": "string",
          "name": "",
          "type": "string"
        }
      ],
      "stateMutability": "view",
      "type": "function"
    },
    {
      "inputs": [],
      "name": "getName",
      "outputs": [
        {
          "internalType": "string",
          "name": "",
          "type": "string"
        }
      ],
      "stateMutability": "view",
      "type": "function"
    },
    {
      "inputs": [
        {
          "internalType": "uint256",
          "name": "newAge",
          "type": "uint256"
        }
      ],
      "name": "setAge",
      "outputs": [],
      "stateMutability": "nonpayable",
      "type": "function"
    },
    {
      "inputs": [
        {
          "internalType": "string",
          "name": "newDescr",
          "type": "string"
        }
      ],
      "name": "setDescription",
      "outputs": [],
      "stateMutability": "nonpayable",
      "type": "function"
    },
    {
      "inputs": [
        {
          "internalType": "string",
          "name": "newName",
          "type": "string"
        }
      ],
      "name": "setName",
      "outputs": [],
      "stateMutability": "nonpayable",
      "type": "function"
    }
  ],
  "bytecode": "0x608060405234801561001057600080fd5b506104c9806100206000396000f3fe608060405234801561001057600080fd5b50600436106100935760003560e01c8063c47f002711610066578063c47f0027146100e5578063cfa84dfe146100f8578063d28d885214610100578063d5dcf12714610108578063f377bd5b1461011b57600080fd5b806317d7de7c146100985780631a092541146100b657806390c3f38f146100be578063967e6e65146100d3575b600080fd5b6100a0610124565b6040516100ad9190610323565b60405180910390f35b6100a06101b6565b6100d16100cc36600461038e565b6101c5565b005b6001545b6040519081526020016100ad565b6100d16100f336600461038e565b6101dc565b6100a06101ef565b6100a061027d565b6100d161011636600461043f565b600155565b6100d760015481565b60606000805461013390610458565b80601f016020809104026020016040519081016040528092919081815260200182805461015f90610458565b80156101ac5780601f10610181576101008083540402835291602001916101ac565b820191906000526020600020905b81548152906001019060200180831161018f57829003601f168201915b5050505050905090565b60606002805461013390610458565b80516101d890600290602084019061028a565b5050565b80516101d890600090602084019061028a565b600280546101fc90610458565b80601f016020809104026020016040519081016040528092919081815260200182805461022890610458565b80156102755780601f1061024a57610100808354040283529160200191610275565b820191906000526020600020905b81548152906001019060200180831161025857829003601f168201915b505050505081565b600080546101fc90610458565b82805461029690610458565b90600052602060002090601f0160209004810192826102b857600085556102fe565b82601f106102d157805160ff19168380011785556102fe565b828001600101855582156102fe579182015b828111156102fe5782518255916020019190600101906102e3565b5061030a92915061030e565b5090565b5b8082111561030a576000815560010161030f565b600060208083528351808285015260005b8181101561035057858101830151858201604001528201610334565b81811115610362576000604083870101525b50601f01601f1916929092016040019392505050565b634e487b7160e01b600052604160045260246000fd5b6000602082840312156103a057600080fd5b813567ffffffffffffffff808211156103b857600080fd5b818401915084601f8301126103cc57600080fd5b8135818111156103de576103de610378565b604051601f8201601f19908116603f0116810190838211818310171561040657610406610378565b8160405282815287602084870101111561041f57600080fd5b826020860160208301376000928101602001929092525095945050505050565b60006020828403121561045157600080fd5b5035919050565b600181811c9082168061046c57607f821691505b6020821081141561048d57634e487b7160e01b600052602260045260246000fd5b5091905056fea26469706673582212202f54582848a2d866785fcaeafb0510bc96e53253efd78d272de4a0621bf5358664736f6c63430008090033",
  "linkReferences": {},
  "deployedLinkReferences": {}
}